:020000040800F2
:10000000F8FF07240D0500083BD6030829D603088E
:100010003DD6030849D6030855D603080000000062
:1000200000000000000000000000000061D603088E
:1000300063D60308000000008DE50308A5E503086A
:1000400099020008D5D60308E7D60308EDD60308C1
:10005000D357040899020008254A04082B4A0408CB
:10006000314A0408374A04083D4A0408D108040804
:10007000E1080408F108040801090408110904084A
:10008000210904083109040899020008D12F040845
:1000900099020008D72F040899020008434A04086F
:1000A00001D7030807D703080DD7030813D70308A0
:1000B00017D703081DD7030823D703081110040816
:1000C0002D1004084910040865100408611B040879
:1000D0006D1B040883D7030889D703088FD703084B
:1000E000674A0408DBD60308000000004DD7030868
:1000F00053D703086BD7030865D7030841090408E1
:10010000990200080D62040829D703089902000823
:1001100095D703089BD7030841D7030847D703089F
:1001200051090408610904087109040881090408D7
:100130009109040899020008E1D603089902000811
:1001400000000000000000000000000000000000AF
:10015000A1090408B1090408C1090408A1D70308CA
:10016000811004089D1004089902000899020008F3
:100170009902000899020008990200080000000096
:100180009902000899020008A7D70308ADD7030811
:1001900099020008990200089902000899020008D3
:1001A00099020008990200089902000899020008C3
:1001B00099020008990200089902000899020008B3
:1001C00099020008990200089902000899020008A3
:1001D00071D6030865D60308990200089902000841
:1001E0009902000899020008990200089902000883
:1001F0009902000899020008990200089902000873
:100200009902000899020008990200089902000862
:1002100071D7030877D703087DD703089902000830
:1002200099020008990200089902000800000000E5
:1002300099020008990200080000000099020008D5
:100240009902000899020008990200089902000822
:100250009902000899020008990200089902000812
:100260009902000899020008990200089902000802
:100270009902000899020008B3D7030800000000A3
:100280009902000899020008990200080000000085
:080290000000000099020008C3
:10029800FEE70000254AD2F8883043F47003C2F81C
:1002A8008830234A136803F00F03062B05D8136818
:1002B80023F00F0343F0070313601E4B1A6842F044
:1002C80001021A6000221A611B4A19680A4018497B
:1002D8001A600A68120705D50A6822F00F0242F070
:1002E80007020A60002215499A61DA611A62996266
:1002F8001349D962134919635A639963DA63196414
:100308005A64196821F4802119601A660E4B1B681B
:100318006FF30F03B3F1005F03D20C4B0122C3F854
:1003280008210B4B43F2D2021A60704700ED00E03F
:1003380000200052004402587FEDF6EA0002020253
:100348000000FF01800201010010005C00800051E4
:10035800004000522DE9F041D0B020220021634D29
:100368000DAC05A82DF0FCFD4C22002120462DF0F7
:10037800F7FDC022002120A82DF0F2FDEB6823F044
:100388000403EB606B689804FCD52FF00DF942F27A
:10039800020398424FD9564BD3F8F42042F0020298
:1003A800C3F8F4200022D3F8F43003F002030193D9
:1003B800019B0292AA6942F44042AA61AA6902F426
:1003C800404202924B4AD16A41F00101D162D26A9D
:1003D80002F001020292029B444A93699904FCD5F7
:1003E8003F2101224FF4803305270591C0210225C2
:1003F8004FF4806820466563C4E90023C4E90B71A3
:10040800002204214023A2640A93C4E91012C4E91B
:100418000E150321C4E90323CDE906120822C4E915
:100428000955CDE90823CDE90B8333F055F8B8B168
:1004380031483CF0A3FC002203922E4AD16A21F0F5
:100448000101D162D26A02F001020392AA6942F460
:100458004042AA61AA6902F440420392039BBBE7A7
:1004680000234FF48022302631902A97CDE92023AB
:100478004FF40013CDE92F8020A84293CDE92B65D6
:10048800CDE92D7533F0CEFD08B11C48D1E719220E
:10049800236B616B05A85343E26AB3FBF2F3B3FB2A
:1004A800F6F206FB1232003AB3FBF1F118BF012253
:1004B8003EF092F908B11248BBE70D4B1A6842F0BA
:1004C80080021A60D3F8F42042F00202C3F8F42044
:1004D800D3F8F43003F002030493049B2FF072F86E
:1004E80032F0F2FF50B0BDE8F08100BF004802587A
:1004F8000044025800040058A4770408B67704089A
:10050800D07704080446DFF82CD00B490B4A0C4B73
:1005180003E051F8040B42F8040B9A42F9D3002087
:100528000849094A01E041F8040B9142FBD32046EF
:100538003CF0A6BDF8FF0724BCE505080000002430
:100548003C0000243C0000244C23002440F8044BC9
:1005580040F8045B40F8046B40F8047B40F8048BD7
:1005680040F8049B40F804AB40F804BB40F804CBC7
:1005780040F804DB68467047024B5A6902605861CC
:10058800002070473C000024024B5A6912685A61E7
:10059800704700BF3C000024024B9A69C0E9002163
:1005A800986170473C000024044A93691968916176
:1005B80010B15A6818461047704700BF3C00002425
:1005C80038B50446044DAB690BB1A34200D338BD1E
:1005D8000120FFF7E9FFF6E73C000024C46005614D
:1005E80046618761C0F81C80C0F82090C0F824A03C
:1005F800C0F828B0C0F82CD080ED0C8B80ED0E9B95
:1006080080ED10ABC0F808E0FFF7B6BF124D6C697B
:1006180008B50CB93CF020FD60602046FFF7D0FF1C
:1006280023686B612046C468056946698769D0F804
:100638001C80D0F82090D0F824A0D0F828B0D0F8AA
:100648002CD090ED0C8B90ED0E9B90ED10ABD0F86C
:1006580008E00120704700BF3C00002410B50021CD
:10066800044600F0D5FA18B914B120460DF014FE6E
:1006780010BD002100F0CCBA10B50121044600F0ED
:10068800C7FA18B914B120460DF006FE10BDFFF7E1
:10069800E5BF10B501220C4600F0DEFB18B914B115
:1006A80020460DF0F9FD10BD00F0D6BB00F096BB5A
:1006B8002DE9F0414FF0030C00252A4C8646D4F86A
:1006C800C402002101310EEB01039A0803F0030371
:1006D800825C5B0042FA03F303F00303022BF1D0C0
:1006E800D4F8D002090100EB0E104FEA910E61B365
:1006F80000EB8E0E03681A0724D1D4F8D022991A79
:100708009A424FEA9116C1F301124FEA111119D812
:10071800D4F8D47252009F4214D9D4F8C4720CFA97
:1007280002F8BB5D43FA02F243EA080302F003024F
:10073800012A07D13F2DBB5504EB45030CD80135E1
:10074800A3F8E41204307045D4D145B1013D04EB5F
:100758004503B3F8E4E2B2E7C4F8E022F2E7BDE803
:10076800F08100BF3C00002430B51C4C0122D4E9C4
:10077800B353C01AC109C0F302134FEA101C9A40C0
:100788006B5C4FEA9C0E23EA02036B548309D4F88E
:10079800D8220325B2EB901FD4F8C4020CF0030250
:1007A80088BFC4F8D832C15C52000CF1010C05FABC
:1007B80002F30CF0030221EA0301530000F80E10C3
:1007C8004FEA9C0ED4F8C40210F80E1041FA03F355
:1007D80003F00303022BE7D030BD00BF3C00002428
:1007E80021F00F01154A38B50B1A154C0546013B87
:1007F800C4F8D412C4F8C402DB00A2FB03235B0ACA
:100808009A00C4F8C832A1EB8311013307321D44A2
:10081800C4F8D01203EBD2020021C4F8CC522DF058
:100828009FFB002301214FF0FF322381A4F86413BA
:10083800C4E9B633C4E9DA3238BD00BFF32C23FA71
:100848003C000024024A138902331381704700BF19
:100858003C000024024A1389023B1381704700BF01
:100868003C000024024B1889003818BF012070474B
:100878003C000024F8B51C4D00222B8905F1080422
:1008880005F50676C5F8E02243F00103C5F86823AC
:100898002B8154F8043F1A0719D1D5F8D022981A99
:1008A80093424FEA9011C0F301124FEA10100ED391
:1008B800D5F8D4725200BB4209D2D5F8C47217F8E1
:1008C80001C04CFA02F303F00303012B02D0B44237
:1008D800DFD1F8BD032393404CEA030C07F801C0AD
:1008E800FFF7E6FEF3E700BF3C00002471B3F8B55C
:1008F8000F46051F0024164E55F8043F1A0719D154
:10090800D6F8D022981A9A424FEA901CC0F30112E6
:100918004FEA10100ED8D6F8D4125200994209D9CD
:10092800D6F8C4E21EF80C1041FA02F303F00303F0
:10093800012B03D00134A742DED1F8BD0323934035
:1009480019430EF80C10FFF7B3FEF3E7704700BF2A
:100958003C0000242DE9F043614C83B0D4F8E03228
:10096800D4F8C412C3B1D4F8C83200259800C4F82A
:10097800E05288B10026B30806F00302CB5C5200AF
:10098800134103F00303032B20D001368642F2D330
:10099800D4F8E032002BEAD1D4F8DC324FF0000969
:1009A80001274FEAD308D4F8CC324FEAC90513F827
:1009B800096046B305F0030316F0010F4FEA9502EC
:1009C8004FEA430314D176080135F3E73046013680
:1009D800FFF76EFED4F8C832D4F8C412B6EB830F12
:1009E8004FEA8300C7D3D4F8E032002BBFD1D3E756
:1009F8008A5C42FA03F303F00303012B09D076085B
:100A080005F10105D6D1C84509F1010325D099465C
:100A1800C9E7D4F8D0022B016A4640F21B41C358FB
:100A280000EB05105BB10CF0CFFD009B3BB10DF066
:100A380087FEDDE900010DF053FE0DF097FEEB088F
:100A4800D4F8CC0205F00701C25C07FA01F122EAEA
:100A58000102C254D4F8C412D1E74FF0000C0326A7
:100A68000227654662460EE0012905D106FA03F31E
:100A780001252EEA030303700132D4F8DC329A42CE
:100A88001FD8D4F8C4124FEA920E02F0030301EB08
:100A9800920011F80EE05B004EFA03F101F0030139
:100AA80002291AD00329DFD107FA03F32EEA030E2D
:100AB80080F800E09446D4F8DC32013200259A42EE
:100AC800DFD923890022C4F8DCC223F00103C4F86B
:100AD800D822238103B0BDE8F083002DEAD0C5E712
:100AE8003C000024044B00211A89C3F8E01242F0AC
:100AF80001021A81FFF72EBF3C000024434B00215E
:100B08002DE9F041D3E9B4420F460E46121BD3E952
:100B1800B1540B4641604FEA840C0C468161026077
:100B2800C0E90211C0E904119A0803F0030801336F
:100B3800AA5C4FEA4808ACEB030E42FA08F2BEFA88
:100B48008EFE02F003024FEA5E1E012A49D0022AF5
:100B580039D0A2BB01369C4501F1010117468660D8
:100B680022D09A0803F00308AA5C4FEA480842FA20
:100B780008F202F00302012A02DDBEF1000FD3D011
:100B8800A2F10108012FB8FA88F84FEA581824D0C2
:100B9800022F02D14269013242618269BA4238BFEA
:100BA8008761B8F1000F02D1BEF1000FBCD0C26856
:100BB8008A4238BFC1609C4519D00021B4E79C45E2
:100BC800CFD10322D7E701349C4507F101074460E0
:100BD800C7D1012F4FF00008DAD102690132026152
:100BE800DBE701349C45446007D01746B9E7240188
:100BF8003601C0E90146BDE8F081076901370761A0
:100C0800876907B982610127D1E700BF3C0000244A
:100C18002DE9F84300F10F0636093FD06E4C2389C1
:100C2800E3BBB4F864230D46E2BBD4F8D802D4F889
:100C3800C872B84232D24FF0010ED4F8C4C201389B
:100C4800013F00216044CCF10108674418E04A1CC8
:100C5800964255D913F00C0F37D18A1C964240F2B0
:100C6800AA8013F0300F36D10132964240F2A880A4
:100C78003F2B23D8511C8E4240F2A780B8420AD09D
:100C880008EB000910F8013F9A07E0D013F00C0FA9
:100C980016D10122E2E7BEF1000F23D00023184647
:100CA800BDE8F883D4E9DA12914226D2D4F8D80202
:100CB800D4F8C872874215D99E46BEE70021DDE701
:100CC80013F0300F0CD10122CFE703F03002B2FA53
:100CD80082F25209CCE73F2B8CBF00210121CDE7DE
:100CE8000022C5E743F066F9D4F8D802D4F8C872F0
:100CF8004FF0010EB842A0D3D0E743F05BF994E778
:100D08004FEA8909A9EB0201012A01F1010704D17F
:100D180009F101039B08C4F8D832D4F8DC3207F093
:100D2800030EB80802314B454FEA4E0E38BF4B460A
:100D38008945C4F8DC324FF0010303FA0EF31CF8BE
:100D480000E043EA0E030CF8003012D34FF0020E15
:100D580001F003038808D4F8C4C201315B001CF811
:100D6800008089450EFA03F343EA08030CF80030C3
:100D7800EED2D4F868331201D4F8D082002133447B
:100D88003E01C4F8683308EB071318462DF0E8F85D
:100D9800EA07034683D50022D4F8CC02F90807F005
:100DA800070748F806200122445CBA40224342540F
:100DB8001846BDE8F8834FEA890909F10109A1E756
:100DC8004FEA890909F102099CE74FEA89090A46AD
:100DD80009F1030996E700BF3C000024034B1A8978
:100DE800012A02D808B1FFF7BFBC70473C000024B5
:100DF800034610F00F001BD1164AD2F8D0129942C0
:100E080015D810B4D2F8D4429C420DD95B1AD2F846
:100E1800C442C3F301119A091B09A25C49000A41A3
:100E280002F00302012A05D05DF8044B70477047B1
:100E38000020704701301A18910802F00302615C23
:100E4800520041FA02F202F00302022AF2D0000133
:100E5800EAE700BF3C0000242DE9F84F0F4606469C
:100E6800002800F0CC80744D2C89002900F0928075
:100E7800002C40F09380D5F8D0020F31D5F8C8C2C5
:100E8800301A09094FEA8C0A030903F1010EBEEB77
:100E98008C0F80F0BA80A446D5F8C4924FF00108B0
:100EA8004FEA9E040EF0030B19F804404FEA4B0B6F
:100EB80044FA0BF404F00304022C2BD02CB90CF1E7
:100EC800010C0CEB08048C4226D341455ED067D355
:100ED800C4448C4525D2002A60D0C209D5F8CC126A
:100EE80003F007033846895C194101F00101FFF757
:100EF8008FFE0446002851D04FEA081231462CF0E4
:100F0800EBFF2B89012B02D83046FFF72DFC20463A
:100F1800BDE8F88F08F101080EF1010EF245BFD1C6
:100F2800D3E75C1843449C4220D903F00302980895
:100F38004FF0020C0133520019F800709C420CFA71
:100F480002F242EA070209F800200FD903F003026F
:100F58009808D5F8C4720133520017F800E09C4293
:100F68000CFA02F242EA0E023A54EFD1D5F8DC321A
:100F7800A1EB080206EB081000219C424FEA02127E
:100F880038BF1C46C5F8DC422CF0EAFF3446204640
:100F9800BDE8F88F012C01D8FFF7E6FB0024B6E77F
:100FA8005C184FF0030CA8EB010104EA0C07A00839
:100FB800012904F101044FEA470719F800E00CFA87
:100FC80007F72EEA070709F8007010D003EB080EA0
:100FD80004F00302A708D5F8C43201345200D95DE1
:100FE80074450CFA02F221EA0202DA55F0D1D5F87A
:100FF800D8328342CAD93446C5F8D802C7E7014671
:101008003846BDE8F84FFFF703BE0129BED029B125
:101018004FF00108002A7FF460AFBFE703F0030335
:101028008009D5F8C41203225B009A400B5C23EABE
:1010380002030B54DBE700BF3C00002410B58AB064
:10104800044603A8FFF75AFD039A0949DDE904306D
:101058000090204600F07CFF2046069C079ADDE9B8
:101068000831CDE90014034900F072FF0AB010BD41
:1010780040D3040864D304082DE9F843DFF85891F5
:1010880007464749D9F8D02200F062FFD9F8C812BC
:1010980089006DD00025DFF8448115F03F0633D074
:1010A80005F003067600AB08D9F8C422D35C3341B7
:1010B80003F00303022B63D0032B5FD0012B4AD12B
:1010C800D9F8D0222B01D25842455BD0354B9A42F1
:1010D8005AD0354B9A425BD0344B9A4256D0344B57
:1010E8009A4253D0334B9A4254D0334B9A4251D000
:1010F800324B9A4252D0324B9A424DD0314B9A429F
:1011080014BF68224D2227E0A9421ED9D9F8C4028B
:101118002C4602E001348C4208D0A20804F00303F4
:10112800825C5B0042FA03F39B07F3D0621B7F2AC1
:101138000BD992092449384624F03F0500F008FFEE
:10114800D9F8C832B5EB830F12D22A011F493846A5
:1011580000F0FEFEA7E72E221D49384600F0F8FEF3
:101168000135D9F8C832B5EB830F4FEA830194D320
:1011780038461849BDE8F84300F05DBB6D22EBE73F
:101188003D22E9E75422E7E74C22E5E75322E3E76B
:101198004422E1E74122DFE74222DDE74622DBE79E
:1011A800ACD304084C1805080C100508F4200508F1
:1011B80024210508C00C0508340D0508B4140508D9
:1011C80078150508B8190508C8D30408E4D3040835
:1011D800ECD30408A8D304083C0000246C220508BA
:1011E8000346064A506A1A684168C1F31E018A42DA
:1011F80002D3521A1A6070470068F5E73C000024D1
:10120800014441F20553884204D398B2012838BFFB
:101218000120704703EB431310F8012B5340F2E70A
:10122800034B044A5A620022C3F81C22704700BFCD
:101238003C0000243C5105082DE9F04781460F4643
:10124800002942D0FFF7DCFF214B82465C6A0CB9CB
:10125800204636E094F907300025E668002B06F1B1
:10126800FF3616DB013604F11808B54215D3246899
:10127800EDE706EB05083A4648464FEA580808F1F4
:10128800060354F823102CF0CFFE0028CCBF4546A7
:101298004646731B012BECD8E4E7236933F8153075
:1012A8009A4510D163695B5D9F420CD13A46494625
:1012B80058F825002CF080FE28B96068C0F31E009D
:1012C8002844BDE8F0870135CFE70120F9E700BFE2
:1012D8003C0000242DE9F84380460F46FFF7ACFF99
:1012E800002840F09280FF2F03D9494949480CF063
:1012F800CFF9494D7E1CD5F81C32ABB1D5E988121F
:1013080032448A422CD9024631441846FFF7CCF9B8
:10131800D5F81C320446E0B90246D5F8241218461E
:10132800FFF7C2F9C5F81C42802E344638BF802426
:101338002046FFF79EF90346C5F81C02B8BB3046A5
:10134800FFF797F90346C5F81C0278BB30460CF046
:10135800A3FFD5F820223244C5F82022002BE3D081
:10136800D5F8242241464FF000089C183244204604
:10137800C5F824223A462CF0AFFD3946204604F839
:101388000780FFF73DFF8146686AD0E90262B242F2
:101398002BD376000A2E38BF0A26C6EBC6001830B3
:1013A800FFF767F948B9C5F81C02CFE734460022B1
:1013B800C5F82042C5F82422D2E700F11802696A6C
:1013C80002EB86020160026102EB460242614A6852
:1013D800C968C2F31E02C0F80C800A44416862F36F
:1013E8001E014246C0E9011668620169436921F895
:1013F8001290911D9F546B6A43F821405868D96830
:10140800C0F31E0001311044D960BDE8F88300BF65
:10141800E4770408A81105083C00002410B5044628
:101428002CF0DCFD01462046BDE81040FFF752BF16
:1014380007B5019001A8FFF7D3FE019A036933F8B5
:10144800120003B05DF804FB07B5019001A8FFF78F
:10145800C7FE019B4269D05C03B05DF804FB07B589
:10146800019001A8FFF7BCFE019B063350F823004A
:1014780003B05DF804FB13B5019001A80C46FFF713
:10148800AFFE019B4269D25C063350F8230022600C
:1014980002B010BD2DE9F8431D46002307468846D3
:1014A800036016460B6013602B60154BDFF85490F1
:1014B8005C6A64B92B68326813442B60BDE8F88312
:1014C800336812F8010B0133034433600DE04C45D7
:1014D800F0D03B6801333B60E268D8F80030134431
:1014E8006269C8F80030E368D1188A42E8D3204618
:1014F800FFF77EFC2B68246803442B60D9E700BF04
:101508003C0000243C510508F8B50B4B0B4F5C6AB6
:101518000CB1BC4200D1F8BD04F11805E36805EB35
:101528008306B54201D32468F2E755F8042B044931
:10153800044800F00DFDF4E73C0000243C51050888
:10154800E97704081800050830B50023202511F8AC
:10155800012F0AB9027030BD120600F101041FD52F
:1015680013B12023037020460B78124A03F07F033F
:1015780063B9013A12F8013F0446013013F0800FB5
:101588000BD003F07F0323700123E0E712F9014B2E
:10159800002CFBDA013BDBB2EAE700F8013CE9E7A3
:1015A800012B04BF057020460B7800F8013B02238D
:1015B800CDE700BFF077040838B5436805461944FD
:1015C8000368994210D9037B1BB1002107480CF02E
:1015D8005FF801F11004806824F0070408342146FC
:1015E800FFF757F82C60A86038BD00BFA8110508A0
:1015F80070B504460E4611461546FFF7DDFF314625
:101608002A46D4E9013018442CF096FC63682B4430
:10161800636070BD70B546680446B14228BF314664
:101628000D460121FFF7C8FFA368681C721B5919F2
:1016380018442CF081FC6368A06801332844636077
:1016480070BD012938B538BF012104460025084678
:1016580021606560FFF702F82573A06038BD38B5D2
:1016680005460C460131FFF7ECFF6C6038BD0023DE
:101678000160C0E9013201230373704738B514468D
:101688000546FFF7DEFF024B2560636038BD00BFEB
:10169800F9150008037B10B5044613B98068FFF7F5
:1016A80005F80023A36010BD38B505461020FEF7E5
:1016B800D5FF04462946FFF7C4FF204638BD10B5BC
:1016C800044648B1037B13B98068FEF7EFFF204654
:1016D800BDE81040FEF7EABF10BD000038B5037B37
:1016E80004460D461BB1002106480BF0D1FF0168E6
:1016F80080682944FEF7CDFF2368A0601D44184484
:10170800256038BDA811050838B504460D46FFF711
:1017180053FFD4E901301D441844656038BDD0E951
:10172800002310B59A42044602D10121FFF7D6FFE3
:101738000021D4E90132D154A06810BD10B50C467F
:101748000121FFF7E1FF047010BD7F29F8B50C46B1
:10175800CEB204D80121FFF7D7FF0670F8BD06F016
:101768003F06B1F5006FC1F3871546F0800607D232
:1017780065F03F050221FFF7C7FF46700570EDE7EA
:1017880005F03F05B1F5803FC1F3073745F0800507
:1017980008D267F01F070321FFF7B6FF45700770EF
:1017A8008670DBE7A40C07F03F07042164F00F0400
:1017B80067F07F07FFF7A8FF857004704770C67051
:1017C800CCE738B505460C4608462CF007FC214600
:1017D80002462846BDE83840FFF70ABF10B5144650
:1017E800FFF718FF047010BD10B51446FFF712FF7D
:1017F800047010BD43688B422CBF591A0021416008
:10180800704738B504461546084662688A4203D9C7
:1018180029448A4201D8606038BDA368521A184426
:1018280019442CF089FB63685B1B6360F4E7084686
:1018380011462DF05DBB70B5054608460E462CF0E6
:10184800CDFB044620B102466B68314628689847AC
:10185800204670BD2DE9F74F0D9D914606468A46F4
:10186800AD1A9DF8302012F0DF0F3BD0302A3BD163
:10187800224F4FF0100813F0200239D005EBD57332
:10188800A5EB63045D10002D36DDAB46D845424616
:1018980073683946A8BF5A46306801929847019A3A
:1018A800ABEB020BBBF1000FF0DCB9F1000F05D078
:1018B8004D4473684A46514630689847002C0DDD00
:1018C8002544A045C14673683946A8BFA14630687B
:1018D800A4EB09044A469847002CF2DC284603B0DA
:1018E800BDE8F08F064FC4E70CAF4FF00108C2E720
:1018F80013F00104C7D02C460025D6E720000508C0
:10190800310005082DE9F04F924693B0CA0780468A
:101918000D461C9C9DF874900593DDE91E760BD44A
:101928008B0703D109687C4B994205D028460DF0F6
:101938002DFD450045F0010514F0210306D1B9F14C
:10194800300F03D1B742B8BF37461E4628460DF1BF
:10195800280B10F05EFF00281CDBA00716D52B23F0
:101968008DF828300DF1290322079DF814101FD592
:10197800BAF1020F10D14FF0300C184600F802CB24
:1019880001F1010C83F801C0034611E0610701D59C
:101998002023E5E75B46E7E7BAF1080F5BD1302083
:1019A8001870200649BF01F10E0001335870023348
:1019B80000200EAA012E1870A3EB0B030B924FF018
:1019C80010020693C4F34723C8BF14438DF82700B9
:1019D800CDE90C2014F01002CDE90213059245D090
:1019E8002B460DAA0CA9CDE900A00BA810F0D4FD38
:1019F800037882462D2B06D18DF8273000F1010A95
:101A08000D9B013B0D93012E7ADD0D9D059BB54283
:101A1800B8BF35462BB19DF8273003B10135069B79
:101A28001D4424F00103AF42079371DD14F001094E
:101A3800A7EB05056DD1202301954A463749009348
:101A480040464B464D46FFF705FF0446059B4FF0C1
:101A58003009C3B936E0BAF1100FA9D14FF0300CF4
:101A6800184600F802CB01F1170C8BE70AAB0DAA58
:101A78000CA90BA8CDE900A32B4610F08DFD8246DA
:101A8800C1E700252C469DF8273053B100230122D9
:101A98000DF127014046013FCDE90032FFF7DAFE9C
:101AA8000444069B5BB10023012259464046CDE918
:101AB8000032069AFFF7CEFE069B0444FF1A012E59
:101AC800D8BF3E46079B51460D9A4046CDE9009641
:101AD800FFF7C0FE04444DB120231049404601954C
:101AE800009300231A46FFF7B5FE04440B980EAB8B
:101AF800984201D0FEF7DAFD204613B0BDE8F08F1A
:101B0800059B0794002BBCD11D461C463E46D9E7D1
:101B1800002500249AE700BF34170508E2C6040828
:101B28002DE9F0430746900798468DB054BFC2F39D
:101B380080032B23164603A858BF5B010A464FF0C3
:101B48002101DDF8509058BFDBB20093159B0AF0D5
:101B580057FCF20504461FD52E2103A82CF090FA55
:101B6800D0B9652103A82CF08BFAA8B96E2103A877
:101B78002CF086FA80B9631C04F130022E2102345D
:101B88006A44303302F8241C6B44302203F8242CB6
:101B9800A3186B4403F8240C73060ED504F1300225
:101BA800631C00210DEB0204252204F8242C03F108
:101BB80030021C466A4402F8241C16F010051DD099
:101BC8009DF80C302F2B4FF0000319D8012203A9E0
:101BD800384609F1FF39013CCDE90032FFF73AFEFA
:101BE8000DF10D010546334622463846CDE90089F8
:101BF800FFF730FE28440DB0BDE8F08303A9F2E7F3
:101C080003A91D46EFE700002DE9F04F81468BB090
:101C180014464FF000080B461D4613F8012B0AB175
:101C2800252AF9D1A94208D26E1AD9F80430D9F870
:101C380000003246B044984729460B78002B00F044
:101C48007F8120234A1C00270393134613F8016B56
:101C58003EB12D2E25D01ED8202E29D02B2E24D0B3
:101C68000026154612F8013BA3F13001092922D9B3
:101C78002E2B46D16B782A2B23D00023154612F839
:101C8800011BA1F1300009281ED80A2000FB031B04
:101C9800ABF13003F2E7302EE2D147F0100703969C
:101CA80001E047F001071A46CFE747F00207FAE7D5
:101CB80047F00407F7E70A2101FB0633A3F13006D2
:101CC800CFE7023554F8043B23EAE37B2B786C2BEF
:101CD80008BF01352978002900F03281782906D813
:101CE800572911D8472959D8442900F21C81D9F815
:101CF800043001222946D9F8000008F10108984764
:101D080085E04FF0FF3BE1E7A1F15803202BEED827
:101D180001A252F823F000BFA91D0008F71C000813
:101D2800F71C0008F71C0008F71C0008F71C00083F
:101D3800F71C0008F71C0008F71C0008F71C00082F
:101D4800FD1D0008271E0008A91D00082F1F0008F8
:101D58002F1F00082F1F0008F71C0008F71C000899
:101D6800F71C0008F71C0008F71C0008F71C0008FF
:101D7800F71C0008F71C0008A91D00083D1E0008F4
:101D8800F71C0008651E0008F71C0008A91D0008BC
:101D9800F71C0008F71C0008A91D00085029A6D147
:101DA80001F0DF0354F804CB502B604668D1642956
:101DB8006AD1BCF1000F80F29D802D23CCF1000088
:101DC8000A228DF8173051230DF1280A0A3B0DF12C
:101DD800180B8646B0FBF2FC02FB1C016046092981
:101DE8008CBFC91830310AF8011DDA455CD072453C
:101DF800EFD959E054F8043B019653B1039B0422F0
:101E0800514900933B464846FFF724FD8044691C2E
:101E180001E7039B05224D4900933B46F3E754F83D
:101E2800043B012206A901968DF81830039B009304
:101E38003B46E8E706A954F8040BFFF71CFBBBF187
:101E4800FF3F014604D0069B9B4538BFCDF818B02C
:101E5800039B069A00933B460196D4E754F804ABDB
:101E680050462CF0BBF8BBF1FF3F024602D0584564
:101E780028BF5A46039B5146019600933B46C2E74A
:101E8800642996D075292FD021F00F0300220F3B2B
:101E98008DF817201022DBB2BCF1000F94D130234B
:101EA8000DF1270A8DF8273017F0100B9DF8173021
:101EB8002DD0002B35D0039B01220DF11701484688
:101EC80000933B460192013EFFF7C4FC8346039B07
:101ED8000AAA514648460093A2EB0A023B460196DD
:101EE800FFF7B8FC584491E700230A228DF8173011
:101EF8006123D1E7BB0705D52B238DF817300A22BC
:101F08005123C9E7C7F380035B01DBB2F5E7002B78
:101F1800DDD006AA9245DAD90AF8013C0AF1FF3A5F
:101F2800D5E79B46D3E70734039B3A46484624F057
:101F38000704CDE9006BB4EC020BFFF7F1FD65E790
:101F480040460BB0BDE8F08FFCA9040801AA0408BC
:101F58000EB403B503AA52F8041B0192FFF754FE0E
:101F680002B05DF804EB03B070470346007893F9BC
:101F78000020002A0ADA00F07F004022104206D131
:101F880013F8012F02F0C001802904D0704720EA1D
:101F980002005208F2E702F03F0242EA8010EFE73F
:101FA800431C18460133027802F0C002802AF8D098
:101FB800704703460020994200D8704711F8012D58
:101FC80002F0C002802A18BF0130F4E7034601443A
:101FD800002099421A4600D870471278013302F05F
:101FE800C002802A18BF0130F3E700007F289DBF98
:101FF800024B185CC0F340000020704742000508FF
:102008007F289DBF024B185CC0F3C00000207047BA
:10201800420005087F289DBF024B185CC0F3800072
:1020280000207047420005087F289DBF024B185CBE
:10203800C0F3801000207047420005087F2809D8A7
:10204800064B1B5C13F00C0F06D1A0F15F0358423E
:10205800584170470020704701207047420005082A
:102068007F289DBF024B185CC0F30010002070470A
:10207800420005087F289DBF024B185CC0F3401042
:102088000020704742000508024608B5FFF7E8FF40
:1020980002EB401008BD08B50246FFF7EBFF4042CF
:1020A80020F01F00104408BD3038092884BF20F0F4
:1020B80020000738704702460144002010B5E52487
:1020C800914203D8B0FA80F0400917E012F8013BBA
:1020D80030B103F0C003802B11D10138C0B2EFE753
:1020E800BF2B09D9F72B09D8DB0803F0060344FAFC
:1020F80003F303F00300E3E71B06E1D510BD00205E
:10210800FCE7023981420B4603D31A880239002AB8
:10211800F8D00233181A40107047B2EB131F70B58D
:1021280004464FEA13101BD901EB4001101A03F0C3
:102138000F0326460246012A01F102010CBF31F8BD
:10214800025C51F8025C013A25FA03F526F8025BB5
:10215800F1D104EB400434F8023C03B9013870BDF6
:102168000020FCE7F0B5059C0025121B2E46AC426A
:102178000FD101EB4403174600EB4404411A9FB901
:1021880004EB420316B1023324F81260181A401007
:10219800F0BD31F8157033F815C067443E4420F897
:1021A8001560360C0135E2E71D88013F35445D5264
:1021B8002E0C0233E3E7F0B4049F00260D463446A4
:1021C800D11BB7420BD105EB47030A4600EB470783
:1021D800451B7AB907EB4101F0BCFFF792BF35F810
:1021E80016C033F816206444A41A20F816402414A4
:1021F8000136E6E71E88013A34445C53241402335E
:10220800E7E72DE9F043079C0239DDF828E0154699
:1022180084464FF6FF78A4EB0209DDE9087655B944
:1022280000EB42011FB10123023120F81230BDE852
:10223800F043FFF766BF31F8024F013D444426449E
:1022480005EB0904A5422ABF33F8024B4FF6FF7489
:102258004444744486EA040E360C17FA8EF74FEAA3
:10226800144E2CF8027B3F0CD9E7022938B538BF49
:102278000221044680680D4618B12368B1EB930F1C
:1022880007D96900FEF705FA2368A06065F39F0384
:10229800236038BD38B504460C20FEF7DFF9054643
:1022A80023682278C3F39D0023F0030302F00102A0
:1022B800400013432B6063686B60FEF7CFF9A8609A
:1022C8002268A168C2F39D0252002BF005FE284641
:1022D80038BD994210B511D313D800EB410002EB79
:1022E800410209B9084610BD30F8023D32F8024DE6
:1022F8001B1B002B02DB04D10139F2E74FF0FF3042
:10230800F1E70120EFE710B5044638B18068FEF721
:10231800CDF92046BDE81040FEF7C8B910BD70B52C
:102328000C4602210546FFF7A0FF002C2B78B5BF0D
:10233800012200226142214662F30003AA682B7041
:10234800012388B21446090C1E4622F8020B03F139
:102358000103F6D16E60208070BD0023C0E9003310
:102368008360704728B103789B0702D48068FEF722
:102378009DB9704738B504460D464968FFF775FFA3
:102388002A782378A06862F3000323706A68A96832
:1023980062605200BDE838402BF09EBD0A4629B95C
:1023A8000178426062F3000101707047FFF7B7BF20
:1023B80008B5FFF7D2FFBDE80840FFF7EFBF92006E
:1023C80042F0020210B4026000225DF8044BC0E93A
:1023D80001211946FFF7E2BFF8B514461D469DF8DE
:1023E800187004210646FFF740FF22462B4627B106
:1023F800002D0CDA624265EB4503317867F3000182
:1024080031700021716052EA030102D1F8BD002742
:10241800F3E7D6E901104C1C746020F81120120C67
:1024280042EA03421B0CEEE72DE9F84353EC102B6C
:102438001E46154603788046F20F62F300030370C8
:1024480047F6F07313EA16420AD198F8003023F0E1
:10245800010388F800300023C8F80430BDE8F88389
:102468009A42F2D0C6F30A53A3F2FF34002CECDBF5
:1024780004D10121BDE8F843FFF751BFA3F2EF37BC
:10248800C6F31306332C4FEA271746F4801642DCAE
:10249800C4F13402A4F11403C4F1140406FA03F3DA
:1024A800D54026FA04F4D6401D4325430024A1460E
:1024B80039464046FFF7D9FEC8F80470B9F1000F55
:1024C80006D04FEA49020021D8F808002BF048FD51
:1024D800A4B105FA04F2D8F8083023F81920C4F199
:1024E8001003103409F10109A3F12002DD4006FAB6
:1024F80004F426FA02F2DE40254315434B469F4278
:10250800ACD0D8F8082022F813502D0C013345EA36
:102518000645360CF3E70C34A3F2334304F00F04FA
:102528004FEA2319C4E72DE9F8438F18C2F35B0279
:1025380004460D46511C9846089EFFF796FE2378E0
:10254800AC4600221FFA86FE68F300032370BC45E0
:102558006046626002D3401BBDE8F88301780CF145
:10256800010CA1F13003092B05D9A1F14103192B65
:1025780012D8A1F13703B342EDD2A0689046814644
:10258800B8F1000F0FD100EB420113B1023120F86E
:102598001230091A4A10DAE7A1F16103192BDAD8C7
:1025A800A1F15703E7E7B9F8001008F1FF380EFB6F
:1025B800013329F8023B1B0CE2E7F8B5044615463F
:1025C8001E46C1B1531E4FF0FF371E44E900204696
:1025D8000F310909FFF749FE2378002123F0010391
:1025E800616023700B4645B9A06800EB4101FFF715
:1025F80088FD6060F8BD0127E8E700220F2B0ADCA0
:102608003078013D3E4400FA03F003F1080342EA42
:10261800000292B2F2D1A0680131103B00EB4100F8
:10262800616020F8022CDEE738B5057804460B789F
:1026380005F0010203F00103981A08D1D1E901322B
:10264800D4E90110FFF745FEEB0748BF404238BD0B
:10265800884210B5044601D0FFF78CFE237823F09A
:102668000103237010BD884210B5044601D0FFF75E
:1026780081FE63683BB12378C3F3000282F0010254
:1026880062F30003237010BD88421FB5044601D0D1
:10269800FFF770FE626862B901212046FFF7E5FD89
:1026A8000123A26813806360237843F00103237039
:1026B80010E02378D9070FD523F0010323700123F5
:1026C8000093A168ADF80E300DF10E030846FFF730
:1026D80072FD606004B010BD511C2046FFF7C5FDB7
:1026E80001230093ADF80E300DF10E03D4E901215A
:1026F8000846FFF737FD6060D6E74B682DE9F047DD
:1027080005460E46144603B12AB931462846BDE8A7
:10271800F047FFF72FBE02F10F014FEA111803EB44
:102728001111FFF7A2FDA96814F00F044FF0000C77
:10273800D6E9012308BF102408EB020703EB420384
:10274800C4F1100407F1004001384FEA400901EBD9
:1027580040001146864609BB6FF001032CFA04FCC1
:10276800C8F1010809F102095A43831820F802C088
:102778004FEA480203EB4803524218462BF0F0FB9D
:1027880003464B4417B133F8022D9AB12B786F608A
:10279800327862F300032B70BDE8F08733F802AD9E
:1027A80001394AEA0C0C2CFA04FA4FEA0C4C2EF8C0
:1027B80002A9D0E7013FE5E72DE9FF410D46496849
:1027C8000646144601B132B92946304604B0BDE880
:1027D800F041FFF7CFBDFFF748FDB768D5F808808F
:1027E80023466A6838464146FFF797FC337870609D
:1027F8000246297861F300033370DB070AD500230A
:1028080020096968ADF80E30994201D0834204D19D
:1028180081420AD804B0BDE8F08138F813509DB160
:1028280001238142ADF80E3012D904F00F040123C0
:1028380038F8101003FA04F4013C214206D1BDF81F
:102848000E30002BE6D003E00133DDE7ADF80E30A3
:10285800012312B93B807360DCE7009339460DF120
:102868000E033846FFF77EFC7060D3E72DE9F3418D
:102878000D465768D1F8048014463B4692680646D0
:102888004146A868FFF725FD01301FBF23462C46A7
:1028980047461D4623782A785340DB0719D4791C0C
:1028A8003046FFF7E2FC6B680093AB68B068D4E988
:1028B8000121FFF757FC70602378327800280CBF9D
:1028C800002303F0010363F30002327002B0BDE895
:1028D800F08139463046FFF7C8FC6B680093AB6857
:1028E800B068D4E90121FFF766FCE4E72DE9F3417C
:1028F8000F464E68D2F80480144631469268434623
:102908000546B868FFF7E5FC01301DBF23463C4685
:10291800B046012618BF1F46237818BF00263A780C
:102928005340DB0719D508F101012846FFF79DFC44
:102938007B680093BB68A868D4E90121FFF712FC03
:10294800686018B1207800F0010070402B7860F3BF
:1029580000032B7002B0BDE8F08141462846FFF71E
:1029680084FC7B680093BB68A868D4E90121FFF761
:1029780022FCE5E74B682DE9F04F0C4651681546F7
:1029880085B08B42064621BF1946254613461C468C
:102998002B78DB0722D4237813F001071ED1FFF729
:1029A80064FCB068AD683B46D4E9011C99420CD17F
:1029B80000EB4101FFF7A5FB00237060327863F359
:1029C8000002327005B0BDE8F08F35F813203CF8EE
:1029D8001340224020F813200133E7E70131304645
:1029E800FFF743FC2F78237807F00109D5F804C0D6
:1029F80087EA030147F30007B06803F0010AC943F7
:102A080043F30003A268834601F0010E41F300017D
:102A18009BB289B200930291B9B267460191A96845
:102A2800A1F102086168A1EB0C0103918FB900EBD9
:102A38004C01BEF1000F03D00123023120F81C30F5
:102A4800FFF75FFB706022782B78C2F30002134017
:102A5800B4E738F8021F013F019B5940039B8944A2
:102A6800D9198F4225BF32F8021B009B00995940A3
:102A7800029B8A4409EA0A014FEA1A4A4FEA1949AD
:102A880059401EFA81F14FEA114E2BF8021BCDE78F
:102A98002DE9F84F4B680D465168144606468B429F
:102AA80021BF19462C4613461D462378DB0731D42F
:102AB8002B7813F001072DD1FFF7D7FBA0686468C6
:102AC8003B46D6F808C0D5E9012EA41A9A4213D17C
:102AD8000CEB4203214600EB4202ACEB0000A1B92B
:102AE80003EB4403A3EB0C0358103378706061F3D5
:102AF80000033370BDE8F88F30F813103EF8135018
:102B080029432CF813100133E0E7158801391552D1
:102B18000232E4E701313046FFF7A7FB27782B782C
:102B28004FF0010A616807F00108B06803F0010975
:102B3800A46843F3000383469BB2A4F1020CD5E9D1
:102B480001E247F300050F46AEEB010EADB22FB917
:102B580000EB4101FFF7D5FA0121C6E73CF8024F27
:102B6800013F6C40A0440EEB0704A7422ABF32F88D
:102B7800024B1C465C40A14448EA09044FEA194943
:102B88004FEA1848E4431AFA84F44FEA144A2BF837
:102B9800024BDCE74B68F0B50D465168144685B02A
:102BA8008B42064621BF194613462C461D462778F8
:102BB8002B785F4017F0010736D1FFF756FBB06856
:102BC800D4E90121247814F00104D5E9015324D172
:102BD800521BA54212D101EB4503144600EB4505F3
:102BE800411AACB905EB4201FFF78BFA002733789D
:102BF800706067F30003337005B0F0BD31F81470EE
:102C080033F814C087EA0C0720F814700134E0E7A1
:102C18001F88013C5F520233E3E7CDE90277CDE933
:102C28000057FFF7EEFAE1E701310127FFF71DFB37
:102C38002B78DB4303F00103039323780197DB43ED
:102C480003F0010302936B680093AB68B068D4E9A2
:102C58000121FFF7D6FACAE74B682DE9F04F044681
:102C680085B00E4615460BB1536843B9237823F057
:102C7800010323700023636005B0BDE8F08F814233
:102C88002DD1FFF707FBA542064607462ED06B68F5
:102C9800204671681944FFF7E8FA22680021A06805
:102CA800C2F39D0252002BF05BF9B368D4F808E038
:102CB8000022D6F804900193F446AB680EEB49085D
:102CC800114602936B680393039B934233D0ACF194
:102CD8000200DDF804B00023CDF800901AE082422B
:102CE80006D1FFF7D7FA05460746D0E70546CEE7EF
:102CF8000027CCE730F802AF53443BF802AB194643
:102D0800029B33F8123003FB0A1300990380013940
:102D18001B0C009100990029ECD14146881C13B185
:102D28000146A8F80030A1EB0E010CF1020C0132AB
:102D380080464910C8E7616038462A78337853409E
:102D4800227863F30002227005B0BDE8F04FFFF768
:102D5800DABA4B6870B50546144613B11378DA072A
:102D680006D52B7823F001032B7000236B6070BD10
:102D7800636823B90121BDE87040FFF7D0BA08465F
:102D8800FFF788FA06462046FFF784FA0121044631
:102D98002846FFF7C4FA636883B1A3681B88DB077A
:102DA80004D5324629462846FFF756FF0123D4E9C1
:102DB80001210846FFF7B1F9606038B93046FFF7DE
:102DC800A2FA2046BDE87040FFF79DBA3246314668
:102DD8003046FFF741FFDEE72DE9F04F0C4651681A
:102DE8008FB09346013105460393FFF73EFADBF8AF
:102DF80004200021A8680026013252002BF0B0F808
:102E08002B786E60204623F001032B70DBF804104A
:102E18000131FFF72AFA59462046FFF7ABFA039B20
:102E2800D4F80890D4F8048048464146D3E90137DD
:102E380002933A46AB680493029BFFF74AFA0028CC
:102E480033D10123049A606013806B602378626831
:102E5800002A0CBF002103F0010161F3000303996C
:102E680023709BF8003009784B40DB0740F1FD8068
:102E78006B682978003B18BF012363F300012970B0
:102E8800002A00F0F2800BA84FF0FF31FFF790FA0C
:102E98000BAA29462846FFF7E9FC039A2146204653
:102EA8000FB0BDE8F04FFFF7E1BC013001D16E6013
:102EB800CCE7029B03F100423346013A4FEA420A4B
:102EC80037F812100E0403F101004ED509EB480142
:102ED8004FF0000C9BB208F101000191CE46C3F1FE
:102EE8001006023129F818C0059660608E4540D357
:102EF80037F812209A400592029A012A09D907EB5D
:102F08000A02C3F1100132F8022CCA400599114394
:102F18000591029A801A049A686000F1004001380D
:102F280002EB400207920AF102020992BA1E0892C5
:102F3800D4F804A0029A524529D30AF1004A002283
:102F4800C3F110000AF1FF3A09EB4A0AD14573D9D7
:102F58006FF000416B682BB15A18049830F81220B2
:102F6800002A73D06FF0004175E04900034689B22A
:102F7800A8E7BEF8008008FA03F64CEA060C059E9E
:102F880028FA06F82EF802CB1FFA88FCAEE7019A59
:102F98000198118832F8022C42EA01420599B2FBE5
:102FA800F1F20999411A0020069186460899069F70
:102FB8000E460199B9420DD809880844A8BB07995B
:102FC80021F80229019A0791023A01920AF1FF3287
:102FD8006260ADE736F8021FB7F80080994018FA2A
:102FE80080F841EA1E4E1FFA8EF151431FFA81FC08
:102FF800090CA8EB0C0CC1EB204127F802CB01EB24
:103008002C40D6E738F8021F994041EA1E4EBCF81A
:103018000010394411FA8EF10F0C2CF8021B01999B
:103028006145EFD83844013AC8E70027DDF8208029
:10303800DDF818C0BE46F2E7BAF8001041FA03F608
:10304800814032432AF802298AB27FE7013B6B604C
:1030580080E7013B63606368002B3FF4F7AE5A18C2
:1030680039F81220002AF4D0F0E60FB0BDE8F08F4E
:10307800F0B51F464B6885B004460D4616464BB161
:103088001378DA0706D47B68012B0BD1BB681B8841
:10309800012B07D1237823F00103237000236360F9
:1030A80005B0F0BD01212046FFF739F97368002B00
:1030B800F6D02846FFF7EEF805463046FFF7EAF85F
:1030C800002306460393CDE901337368B3B1B368AF
:1030D8001B88DB070AD52A4621462046FFF7BCFD98
:1030E8003B462246214601A8FFF776FE0123D6E992
:1030F80001210846FFF711F8706058B901A8FFF7D9
:1031080031F92846FFF7FFF8304605B0BDE8F04032
:10311800FFF7F9B82A4629462846FFF79DFD3B46A2
:103128002A46294601A8FFF757FECEE7D0E9012134
:103138000346002001EB420210B5914204D31B78EC
:10314800DB0748BF404210BD32F8024D44EA004058
:10315800F3E730B5D0E90124002304EB420294429E
:1031680006D302780120D20748BF5B420B6030BD0E
:10317800B3F5004F04D232F8025D45EA0343EEE7A7
:103188000020F4E72DE9F74FDDF830C006460F467A
:10319800019209B30CEB0300012400211A46A24650
:1031A8008E46D6E90189B8F1000F17D10199002997
:1031B80045D0002A43D1002B41D0002F3BD09CF8AA
:1031C80000302CB1DB43347884EAD31404F00104D2
:1031D800204603B0BDE8F08F6046DDE739F8025BB2
:1031E8000EF1100E45EA0141BEF1070F02DC08F1AD
:1031F800FF38D8E796F800B08DB21BF0010F1FBF5B
:10320800ED435AFA85FA1FFA8AF5CAF3072A42B932
:103218001CB1EDB2B5FA85F46409AEF1080E090ADD
:10322800E2E7EDB227B100F8015C0138013AF4E7B2
:1032380000F8015BFAE7634413F8013CC1E733780F
:1032480013F0010F14BFFF210021002F18BF6046A3
:103258002AF086FEBCE70000D0E901329FED0C0B96
:103268009FED0D6B02EB43039A4205D30378DB070E
:1032780048BFB1EE400B704733F8021D07EE101A35
:10328800B8EEC77BA0EE067BB0EE470BECE700BFBD
:103298000000000000000000000000000000F040F6
:1032A8000A292DE9F74F1546446814BF0422032262
:1032B800804689469DF830A00D9E0092A4B98DB134
:1032C800013D324615F8011F134641B930221A70E4
:1032D800002203F8012F981B03B0BDE8F08F02F815
:1032E800011BEFE73346F1E764000193B34620463C
:1032F800FDF7B4F92246D8F8081007462AF0ECFD85
:10330800019B304607EB040C3A3BACF10204002168
:10331800A742A6461DD930315C46392988BFC9184D
:1033280004F8011B39468C458E461DD83846FDF7F2
:10333800BDF965BB98F80030DB0744BF2D2304F8BE
:10334800013B3346621E9A4233D80023A01B2370E8
:10335800C2E7BEF800E04EEA014EBEFBF9F124F8E0
:10336800021909FB11E1D3E7BEF800200231002A57
:10337800D9D0BAF1000F08D0211A009A914204D18D
:103388000BF102048BF801A02046A346BDE72846AE
:103398002AF024FE29185A460B46AB4204D88D421F
:1033A80088BF00200444C5E713F8017D02F8017FB7
:1033B800F3E71978107803F8010B02F80119C2E74E
:1033C800D0E9023293423DBF5A1C826018784FF010
:1033D800FF3070470368013B033310B5044602D839
:1033E8004068FDF763F92046BDE81040FDF75EB977
:1033F800F8B50C461F46164605461020FDF72EF96F
:10340800054B8460C0E900743444C4606B60034BAE
:103418002860AB60F8BD00BFC9330008DD33000881
:1034280002690A2A10B5044635D1836A01338362DA
:103438000123A269E36263696261226F2361002A42
:1034480031D0616E8A423BBF501CA16E00222067BA
:1034580038BF8A5CA2613BB9E26963662261226A6D
:1034680023676261626AA26163690D2B08D10A222F
:10347800A3699342626103D1D4E901039847A0612B
:10348800A369013306D163695A1C03D00A2B1CBFF8
:103498000A23A36110BDC36A092A04BF073323F0B6
:1034A80007030133C5E7D4E901039847A061DBE7C7
:1034B80001690246272901D0222912D1012024E0DE
:1034C8005369272BFAD0222BF8D0722914D1662BF6
:1034D80016D190692728F1D0A0F12203584258410B
:1034E8007047A1F16200132804D8084B034113F078
:1034F8000100E5D000207047662904D1722B00E056
:10350800622B02D1E5E76229F8D07047EEFFF6FF9B
:1035180038B504460D462069431C1AD00A2806D13E
:103528000DB1636BB3B12046FFF77AFFF3E7FEF7FF
:103538005DFD0028F7D12369232B08D12046FFF72A
:103548006FFF23695A1CE6D00A2BF7D1E3E75C2BFF
:1035580002D00025284638BD63690A2BF9D12046D8
:10356800FFF75EFFDFE70000436E2DE9F04F0446EA
:1035780085B0A3B1036F93B929216030FEF7DEF857
:103588002369E36163692362A3696362A36E1A789E
:1035980022615A7862619B78A36103232367002321
:1035A800012120466365FFF7B3FFA36A276B6364B5
:1035B800002FE36AA36407DA0723013784F84C3045
:1035C800276305B0BDE8F08F04D00623013F84F8D7
:1035D8004C30F5E7002835D039462046FFF798FFEC
:1035E8000523E56A84F84C30013DD4E90F3003F136
:1035F8000042013A30F812209542E2D009D8013B46
:1036080030F81320954218D3DBD0022384F84C30CD
:10361800D7E7A16B8B4207D308314900FDF739F88A
:10362800A36B20640833A363E36B5A1CE26320F89E
:103638001350236B01332363C3E7226BE363013A1F
:103648002263DCE725696E1C02D184F84C00B8E7D8
:103658002046FFF72DFF0646002800F0C18184F8B8
:103668004C702369722B6BD008D8622B0DD0662B57
:1036780070D0B9460025A8460B230EE0A3F17505C6
:10368800D5F1000949EB0509F4E763690025722BB8
:1036980068D0A8464FF001090C2394F84C20002A62
:1036A80069D184F84C30B9F1000F08D02046FFF7F3
:1036B800B7FEB9F1020F02D12046FFF7B1FE236928
:1036C8002046222B0CBF222327230093FFF7A8FEB6
:1036D8002369009A934251D163699A424ED1204698
:1036E8004FF00309FFF79CFE2046FFF799FE35B11E
:1036F800636E23B99E4904F16000FEF762F804F195
:103708006002002304F1500A01922169481C00F06C
:103718006181B9F1010F02D10A2900F05B814B45A3
:103728002FD3194604F15000FEF764F80121204612
:10373800FFF7EEFE2046FFF7BBFE002891D140E7D9
:103748006369622B0DD0662B10D00025B0464FF070
:10375800010991E763693546722B08D04FF00008DC
:10376800F5E70025B0464FF0020995E73546B04623
:103778004FF0020980E79A4295D022E74FF00109FD
:10378800B5E7009A8A4216D015B121697B291FD066
:103798005C2940F01C8120460291FFF741FED4F8D5
:1037A80010B00299B8F1000F6AD004F15000FDF78B
:1037B800CCFF5946BFE00133009950460293FDF70C
:1037C800C4FF029B20460293FFF72AFE029B9CE758
:1037D8002046FFF725FE21697B290AD15046FDF7CF
:1037E800ADFF2046FFF71CFE7B215046FDF7A6FFE4
:1037F800CBE728210198FDF7A1FFD4F864B0002297
:103808002169481C0FD03ABB3A290CD07D290AD02F
:10381800212921D160697238012822D8A0693A2863
:1038280001D07D281DD1D4E91921881810F8010C80
:103838003D2808D1A2EB0B0259445046FDF7D8FEAB
:10384800636E013B636601982921FDF777FF2C2100
:103858000198FDF773FFC7E721F020005B280AD124
:103868000132C9B201980292FDF768FF2046FFF7BE
:10387800D7FD029AC4E75D2808BF02F1FF32F0E7DE
:10388800BBF1780F09D8BBF15B0F08D8BBF1220F49
:1038980044D023D8BBF10A0F4FD05C2185E7ABF1A8
:1038A8005C021C2A68D8DFE802F039676767678618
:1038B800266767672E676767676767672A67676747
:1038C8000F6728302C674A000D2194F84C300B2BD9
:1038D80073D104F15000FDF738FF2EE0BBF1550F0E
:1038E80013D0DAD8BBF1270F18D0BBF14E0F43D154
:1038F80020480AF0BBFE0821E7E70921E5E70A218D
:10390800E3E70B21E1E70C21DFE794F84C200C2AD0
:1039180006D15C2104F15000FDF717FF5946D4E7A2
:10392800BBF1750F14BF4FF0080B4FF0040B0021CB
:10393800BBF1010B06D24B1C36D1002342E74FF0F6
:10394800020BF4E720460291FFF76AFD2269104650
:103958000392FEF769FB002800F056810299039A4A
:10396800090110460291FEF79FFB02990144DFE727
:103978004CAA040855AA0408ABF1300107298CD8D1
:103988004FF0030B08E020460291FFF749FD22693A
:103998000299303A02EBC1016269303A072ACAD863
:1039A800BBF1010BEFD1C6E7B1F5881F8DD3012319
:1039B80084F84C30C1E7072187E7FF29F7D80C2B9B
:1039C800F5D1C9B204F15000FDF7B8FEB5E7C9B2A8
:1039D8005046F9E74B453CBF032284F84C20A0E64B
:1039E8002846FEF70DFB2169D8B95F2919D07F2930
:1039F80017D80846FEF70EFB002856D123692E2B50
:103A08004ED00026834D2F781FB12369BB4240F06A
:103A1800A4802046FFF704FD002F40F0A680012374
:103A2800F4E5082304F15005C9B284F84C3028465F
:103A3800FDF784FE2046FFF7F3FC2069421C1BD1EA
:103A48002846754FFDF76BFE0025064657F8041B00
:103A580030462AF0D1FA00281CD10E35EDB2112DCE
:103A680084F84C507FF4ADAD6C4BD3F82832002B62
:103A780014BF0E231023C9E5FEF7C2FA40B9206926
:103A88005F2805D07F2803D8FEF7C4FA0028D7D0CE
:103A9800217CCCE7FFF695AD0135242DD6D190E5F4
:103AA8006069FEF7B7FA0028ABD021692E292AD120
:103AB8000A2384F84C30002504F150060A273046C2
:103AC800FDF743FE2046FFF7ABFC2069431C3FF49B
:103AD80078AD4DBB20F02003452B25D1652130461C
:103AE80084F84C70FDF731FE2046FFF799FC2169F8
:103AF8002B2901D02D29E8D13046FDF726FE204696
:103B0800FFF78EFCE1E70923302984F84C30D2D145
:103B1800636943F02003623B162BCCD8404DDD404F
:103B280015F00105C8D1C6E7FEF76AFA28B1216980
:103B38002E290DD184F84C70DEE72069FEF76AFA69
:103B48000028F4D123692E2BF1D05F2BD7D038E58C
:103B580021F020034A2BCFD1ECE7652F01D0632F4A
:103B680000D10135013601354DE7212F08D12369F0
:103B78003D2B7FF454AF2046FFF752FC392345E52F
:103B88002E2F0FD123692E2B02D163692E2B01D042
:103B98005C233BE52046FFF743FC2046FFF740FC4B
:103BA8000D2333E50335334615F8027C632F18D00F
:103BB800652F16D01B4AD35C84F84C30543BDBB2DB
:103BC800052B3FF6FEAC012202FA03F313F02A0F8D
:103BD80017D113F0150F3FF4F4AC636B1344636310
:103BE800EFE415F8012C01362169914207D12046EE
:103BF800FFF716FC3346652FDCD00235D4E7632F78
:103C0800FAE7636B013BEAE70123014684F84C308D
:103C18005BE600BF07AA0408C40005083C000024AE
:103C280001204000540105087FB501AD0646742007
:103C380085E80E00FCF712FD0446034695E80700E8
:103C480043F8046B002583E8070001236FF00102A5
:103C58001420C4E90A320A22C4E90C55C4E90E2327
:103C6800FCF7FCFC2021206404F15000FDF7E9FC7E
:103C7800294604F16000FDF7E4FC236C2046256723
:103C88001D802561C4E90555FFF7CAFB2046FFF7EB
:103C9800C7FB2046FFF7C4FB2046FFF765FCA36C73
:103CA800012B06D094F84C30052B1CBF062384F852
:103CB8004C30204604B070BD30B585B0054601AC27
:103CC8002046FFF795FB284694E80E00FFF7ACFF67
:103CD80005B030BD30B585B00446014601AD284673
:103CE80021F03CF8204695E80E00FFF79DFF05B04F
:103CF80030BD10B5044690B1C3684068984704F1D8
:103D08005000FDF7C7FC04F16000FDF7C3FC206C10
:103D1800FCF7CCFC2046BDE81040FCF7C7BC10BD42
:103D2800D0E90432013B036152F82300704703696C
:103D380042695B1A013B52F823007047F8B5446AA0
:103D480006460D46B4B1D4E900030B44834222D998
:103D58000831002201442046FCF7A6FC0246B8B907
:103D6800616820460831FCF79FFC63682360336A6A
:103D780063603462802D2F4638BF802707F1080022
:103D8800FCF76CFC0023076004464360706202E0A5
:103D980023682B44236060680834054444F8045CB5
:103DA8002044F8BD38B50D460C211446FFF7C6FF70
:103DB8004FF49D720560C0E9012438BD38B5D0E9DB
:103DC800033204460D469A4208D3103340699900DD
:103DD800FCF75FFCE36860611033E360D4E9043208
:103DE800591C216142F8235038BDF8B504461D46D8
:103DF8000F461646D0E90003834208D31030C100AD
:103E0800A068FCF746FC2368A06010332360D4E95F
:103E18000103421C626003EBC00253F8301067F3E1
:103E2800170143F83010D6705560F8BD10B4846996
:103E3800CAB20023616C5DF8044BFFF7D6BF0000DF
:103E4800F0B593B004460E46174668461D46FCF783
:103E5800C5FB10B1002013B0F0BD3A4631462046EC
:103E68000AF036FA0446FCF78FFBA30703D1226851
:103E7800024B9A42EED001202C60ECE7200E050898
:103E880010F00102034604D040F001030B6001204A
:103E98007047A8B110F0030013D11A793A2A11D14A
:103EA8009B6813F001000B60F1D19A070AD11868DA
:103EB800054B9842EBD0054BC31A584258417047FE
:103EC80070471046704700BF34170508B41405083A
:103ED80010F001021CD110F003030CD000F00F0306
:103EE800062B15D00A2B11D100090D3803288CBFD9
:103EF80000200120704770B102793A2A08D02D2A93
:103F080008D18068B0FA80F04009704710467047C1
:103F18000120704718467047C20702D540F00100DB
:103F28007047830710D0030900F00F00062803D15B
:103F3800D80040F002007047A3F10E00022809D80B
:103F4800064B53F82000704730B103793A2B03D160
:103F5800806870470248704702487047800105082A
:103F6800FC1D05083022050838B505460C46FFF744
:103F7800AFFF38B12846FFF7CFFF0BF053FB031B09
:103F88005842584138BD2DE9F0410F4605461446C0
:103F9800114689B9204612F039FF014600F1080898
:103FA800A4B90A4628463946FFF7FCFE01462846CA
:103FB800FFF704FF012007E001392846FFF7B7FEA5
:103FC800FFF786FF0028E4D1BDE8F0812846013CD0
:103FD800FFF7A6FE0646FFF79FFF48F82400002ECD
:103FE800DED0B307DCD1686A00F108039E42D7D35C
:103FF800426813449E42D3D273681B0A0233A2EB71
:1040080083024260CCE70000F7B5866905460F4693
:1040180096F84C20A2F10803042B52D8DFE803F0ED
:1040280003232B384C00D6E91510FDF753F9902FD0
:1040380004460ED1C100002205F1280041F002011A
:104048000AF0B6FE28B14268D3071CD542F0010039
:1040580002E0200140F002000146284603B0BDE816
:10406800F040FFF7ABBE00223346D6E9151008F042
:1040780045FC0246E8E7009600230122D6E9151020
:1040880008F09EFD0246716C2846FFF78BFEE3E7B9
:10409800D6E915100A2906D8FDF71CF930B1000138
:1040A80040F00600D8E7FDF7C7F8F7E7D6E915218D
:1040B800064810F08DFFE5E7D6E9151011F068F80D
:1040C800E0E7120142F00A00C6E700BF2421050814
:1040D80010B5FFF7D5FE50B10B6813F0010007D1FA
:1040E8009A0704D11868034BC31A5842584110BDA7
:1040F8000120FCE7341705080021FFF735BF01212F
:10410800FFF732BF2D2A2DE9F04F044685B08846C7
:1041180016461D460BD10021FFF709FEC0B18207E4
:1041280002D10379922B13D005B0BDE8F08F922A03
:104138002ED10021FFF7FBFD014648B1830707D1C7
:104148004768FBB2952B18D1013D2046FFF7E8FDE3
:10415800A6F12303DFB2092F00F2EB80092B00F24E
:10416800CF80DFE813F0ED00ED00ED001F011F0127
:104178001F014A01ED00CD009401962BE8D127F0EC
:10418800FF072046FFF7CCFD47F092074F60CBE7CB
:10419800962A13D10135D0E9012303EBC20313F8A2
:1041A800153C2D2B40F0AD802A46FFF7ECFE002889
:1041B80000F0A7806368023B6360B5E7A2F11E03C5
:1041C800012B5FD9202A00F08380052AC0D1002165
:1041D800FFF7ADFD0746002800F0938010F0030AB2
:1041E80005D1436803F0FE03562B00F08A800121B5
:1041F8002046FFF79CFD00F00F03022B40F0818062
:10420800BAF1000F7DD13B792C2B7AD1BB6803F032
:104218000F02022A75D11B09482B72D1FB68002BAB
:104228006FD09A076DD11A79302A6AD1D3F808B0BD
:104238004FEA10195846FFF74BFE002840F002815C
:10424800B949BA480DF026F9A169054653463A68B6
:1042580009680DF0F5F92846FCF7D8F91E2E0AD1A1
:10426800FFF74DFF18BB3846FFF746FF00B9D346A6
:104278000BF1FF3A0BE0FFF73FFFC0B93846FFF7F5
:104288003EFFF3E705F1FF3A8DB1AB46A94609F1C8
:10429800FF3920464946FFF74AFD23696269074608
:1042A800A3EB0B0342F82300B9F1000FD6D100218C
:1042B800514508D16D1A012D3FF436AF362E00F066
:1042C8004681332E41E120460131FFF729FDEFE712
:1042D8000021FFF72CFD0746FFF70EFF68B93846A7
:1042E800FFF70DFF68B1EA212046FFF719FD2046C8
:1042F80005B0BDE8F04FFFF761BD4FF48571F3E7F6
:104308002B26A91C20468900FFF718FD074646EA18
:10431800052300F10801C0F800804360002D40F03B
:104328001F81962E03D139462046FFF747FD3946AF
:10433800DDE7922E00F00281062E00F00881BDE72D
:10434800691E2046FFF7F3FC01A9FFF799FD002835
:10435800B7D0022FA5F1020796BFA6F10D094FF0BD
:1043680022095FFA89F9002F09DA002D40F0D1807F
:10437800019AD30740F1D28042F00101B7E73946EC
:104388002046FFF7D4FC02A9FFF77AFD002898D051
:1043980001AB4846DDE90112FFF752FD002890D035
:1043A800013FE0E7691E2046FFF7C1FC01A9FFF7BE
:1043B80067FD002885D0AF1E002FD6DD791E204668
:1043C800FFF7B5FC02A9FFF75BFD00283FF479AFC2
:1043D80039462046FFF7ABFCC0F3071042283FF4EC
:1043E80070AF243801ABDDE90112C0B2FFF728FD38
:1043F80000283FF466AF023FDEE700212046FFF7C2
:1044080096FC01A9FFF73CFD00283FF45AAF0121B3
:104418002046FFF78CFCC0F30710019933280BD115
:10442800CF0707D488077FF44CAF0A68404B9A42FD
:104438007FF447AF022001E03F38C0B209F082F9AB
:10444800019092E75846FFF767FD07464FEAC90310
:104458000A4604F1280043F002010AF0A9FC47606B
:104468004846FCF7FCFF037820465F2B08D100255F
:10447800FFF756FC20460826A846FFF751FC67E6DA
:10448800FFF74EFC59462046FFF798FC39E7012113
:104498002046FFF74CFC00F00F030746022B7FF481
:1044A80010AF00212046FFF742FC00283FF409AF77
:1044B80010F003027FF405AF0379322B7FF401AFCC
:1044C8003909D0F808901B48C90041F002010AF0E8
:1044D8006FFC00283FF4F5AE02AA4FEA19114068B4
:1044E80009F072F8029B002B3FF4EBAED9070AD40F
:1044F8009A077FF4E6AE1A680D498A4203D00E493E
:104508008A427FF4DEAE039A002A7FF4DAAE019382
:104518002BE72046013DFFF703FC26E72946204606
:10452800FFF740FC0146E2E6E3AA0408601105082B
:10453800341705088C010508B4140508D4E90123CB
:1045480003EBC20313F8053C2D2B7FF4DAAE2A46A1
:1045580041462046FFF717FD00287FF4E5ADD0E679
:10456800013D2046FFF7DCFB41F82500D6E600BFF9
:104578000346006830B550B184070AD14468E5B2F3
:104588008D4206D100F10803200A136030BD0346AE
:10459800FBE70120F9E700002DE9F04FA94B97B0A0
:1045A8000D460024029005A80192CDE90731A649DD
:1045B800FBF7F2FF40234FF40070CDE90934FCF714
:1045C8004DF820230B908020CDE90C34FCF746F8F9
:1045D8002146CDE90E0513A8CDE911440AF0B2FB36
:1045E800019B002B48D0022B0CBF3F222246002300
:1045F800696C09A8954FFFF7F8FB00230A9C002C6B
:1046080000F06481013C0B99914801EBC40251F818
:1046180034100A94D678C1F3170A8E49632E52686B
:1046280011F806B08C490BF00F09895D88BF41F479
:10463800807100EB41080BF0300110291ED02029B1
:104648004BD0002B00F01B81B9F1020F40F00A811A
:10465800012A40D000211BF0010F02F1FF3306D0E0
:10466800B8F802003840B0F5805F08BF5308012B46
:1046780040F0E580E1B1E2E03D22B8E702B1BBB12C
:1046880008EB420825E0C34638F8023B03EA070175
:10469800B1F5805F0ED195F84C10C3F30B03994226
:1046A80016D109A83146FFF7AFFC2846FEF75CFF94
:1046B8000023A3E7531C4B4504D23246514609A8B0
:1046C800FFF793FBBBF8001009A8FFF7AFFBEFE774
:1046D80001329145D7D8012390E773B102F1004325
:1046E800013B38F813303B40B3F5405F21D100213E
:1046F80009A80392FFF762FB039A08EB420491456D
:104708002BD8019B83B1052E0ED1002109A8FFF7F4
:104718000EFB48B9012109A8FFF709FB830744D01C
:1047280000F00F00022845D1002408EB4903A146F8
:104738005AE0012ACFD995F84C30062B40F0F48086
:10474800464947480CF0A6FE044600236A6C2968CF
:104758000CF076FF2046FBF759FF039434F8021B50
:1047680001EA0700B0F5805F16D1C9B295F84C0090
:1047780088420ED1082805D1314609A80392FFF7CF
:1047880043FC039A28460392FEF7EEFE039A013291
:10479800B5E7002A9FD0CEE7531C5146324609A8F8
:1047A800FFF723FB039B19888EE70028BCD0037909
:1047B8003A2BB9D109A8FFF7B3FA09A8FFF7B0FA5D
:1047C80000230822514609A8FFF79CFC70E733F83C
:1047D800022D02EA0701B1F5805F10D1D2B2082A92
:1047E80002D1013409F101099845F0D1B9F1010F5D
:1047F8001CD11BF0400F19D00026314610E021468D
:1048080009A80393FFF793FA039B08B109F101097B
:104818000134E9E7FFF784FA0136002818BF01469A
:10482800A64209A8F6D1FFF7C9FA41E71BF0800FA5
:1048380004D00134002109A8FFF7C0FA2346324604
:10484800C0E700BFFB3C0008D3D4000800F0FFFF1E
:104858007802050800060508C8010508EFAA04083B
:104868003C110508012A3FF436AF12F001013FF46C
:10487800F2AEB9F1030F7FF45EAF0121EBE609EA6E
:10488800020303F0010338F8134004EA0701B1F505
:10489800805F13D1C4F30B0495F84C10A14202F1C8
:1048A800010409D11BB9314609A8FFF7ADFB284619
:1048B800FEF75AFE2246E2E72246C5E6531C514659
:1048C800324609A8FFF791FA2146FDE613A80AF037
:1048D8004DFA129850B1416822460831FBF7E4FEC0
:1048E800129B5A681A60119A5A60119395F84C30C5
:1048F800002B7FF420AF0D9B002B3FF41CAF0E9BC9
:104908000B981B681093FBF7D1FE0E98FBF7CEFEB1
:104918000120FBF749FE029BDDE9100183E8030053
:10492800184617B0BDE8F08F022B01D1034908E7FC
:10493800042B03480CBF0349034903E701AB0408F0
:104948006011050823AB040836AB040838B50446E3
:10495800406808B9606038BD4568FBF7A7FE28467F
:10496800F7E70000F8B5054630200E461746FBF776
:104978008EFE072D04460570C66001D0012D0FD1AB
:10498800B368C3F30F13A38208F0FEF90423206170
:1049980020202783E384FBF761FEE0622046F8BD10
:1049A800014B5B5DEFE700BFB006050810B5044694
:1049B800C06AFBF77BFE2046BDE81040FBF776BED9
:1049C80030B500220446058D954201D8002030BD3F
:1049D800E36A03EBC20043688B42F8D00132F3E785
:1049E80070B504460D461646FFF7EAFFC0B9E38CDA
:1049F800228D9A4208D30633E06AD900FBF749FEB4
:104A0800E38CE0620633E384238DE26A591C02EBEF
:104A1800C300218502F8336000234560437043805A
:104A280070BD034618465B68002BFBD1FFF7C8BF73
:104A3800F8B544680E462CB9F8BD042BFCD1052303
:104A48000370F9E7254628466D68002DF4D077688D
:104A58003946FFF7B5FF0028F5D00378043B022B51
:104A6800EAD806253570002239462046FFF7B8FFF8
:104A78000378002BE1D105706468F4E7036A1B8BA7
:104A8800012B1EBFC3685B18C3607047836A10B5EB
:104A980004469B6F406A9847238B226A0133918CA6
:104AA8009BB29942238338BF938410BD038B013B8B
:104AB80010B503830446836A406AD3F88430984764
:104AC80020460121BDE81040FFF7D8BF2DE9F04F7F
:104AD80085B004460D46984603921BB1CB8A43F035
:104AE8000803CB82039BEB83236ADA8A42F0300205
:104AF800DA821B78002B46D1A36A2946039AD3F899
:104B0800B4604346606AB44605B0BDE8F04F6047FC
:104B1800DB6A03EBC60B13F83630053B012B1DD8B7
:104B28004FF0000917E0EB6A03EBC90213F83930BC
:104B3800062B0ED1DBF804105368994209D1A36AF9
:104B48000AF1010ABBF802201B69606A1F460023AC
:104B5800B84709F101092B8D4B45E4DC0136236A7E
:104B68001A8DB242D4DCBAF1000FC5D0A36A5246FE
:104B7800CDF800802946D3F8B860606A039BB04737
:104B880005B0BDE8F08F0026B246E8E7836A002149
:104B980010B50446D3F88830406A9847A36A606A1B
:104BA8000F211B6B9847A36A606A0121D3F8CC30A8
:104BB800984720460321BDE81040FFF75FBF38B58E
:104BC800836A04460022406A5B6C9847A36A606A5D
:104BD800D3F8C05000231A461946A8472046BDE816
:104BE8003840FFF7D3BF836A002289681B6D090923
:104BF800406A1847836A8968DB6B406A184710B5B2
:104C08000446084611461A46FFF7ACFE236A43607D
:104C180000238360E3690BB9E06110BD1A469B6805
:104C2800002BFBD19060F8E72DE9F04F87B00546DF
:104C38000C4600AF11B90121116013E011F0030611
:104C480019D10B79682B19D1CB681B0913608C68B3
:104C5800002CF0D0012604F00F03022B0DD12109FE
:104C6800002EE9D0AB6A0022686ADB6A98471C37D5
:104C7800BD46BDE8F08F0026EDE716B9A3681B090D
:104C88001360A04658F8043F4FEA132AC14608EBC0
:104C98008A030AF1FF3BBB6059F8040F0009FCF7CF
:104CA800D3FBBB6883449945F6D10BF1070323F086
:104CB8000703ADEB030D0023E946C7F80CD058F8FD
:104CC800040F07F114013B600009FCF7D4FB7A6973
:104CD800014648467A6029F0FFF83B687A68013354
:104CE8004A449A4505D091464FF02E0209F8012B07
:104CF800E5E75946F868FCF7EDFAAB6A0146002289
:104D0800DB6A686A9847002EB1D00834BB689C42B9
:104D1800ADD054F8041F0022AB6A0909686A1B6DFC
:104D28009847F3E731B101F003038268134304BFE6
:104D38000B68836070472DE9F04107461E4659B15C
:104D480011F0030510D14B68D8B290420CD14FEA4C
:104D580013280C1D454501DBBDE8F08154F8041FFC
:104D680038460135B047F5E738463346BDE8F041E7
:104D780018470000F8B50E4611461A4600230446A7
:104D880085780769837003610E4BFFF7D4FF63686A
:104D9800BBB9618A51B1228A42B9A36A606AD3F861
:104DA800A0309847A36A606A1B6C9847238A3146EB
:104DB800628A2046FFF78AFE003D276118BF012559
:104DC800A570F8BD2556000870B5437805460C4611
:104DD800012B06D1036A0A4602211B8BFFF70FFF3E
:104DE8002061A268284621694C23BDE87040FFF77E
:104DF800C1BF70B51346427805460C46012A04D156
:104E08000A460721FFF7FBFEA061A669284646234C
:104E1800E2683146FFF7AEFFB08A70BD024B9D22B3
:104E28008968FFF788BF00BF315B0008024B6B221F
:104E38008968FFF780BF00BFC176000838B54368AE
:104E48000D46044611464BB905480CF023FB29468C
:104E580060602046BDE83840FFF764BF38BD00BF3A
:104E680060110508014AFFF7E9BF00BF3AAB040823
:104E78000B79092B4FF6FF7370B508BF858A044676
:104E880018BFC58A9D4202D1064AFFF7D7FF218B7A
:104E9800628BA36A8A1A606A29465B6FBDE8704014
:104EA800184700BF47AB040838B5054679B101F08B
:104EB8000F03022B0DD10C09204609F0BFFD002875
:104EC80006DA2246054906480CF07AFB686000209D
:104ED80038BD044AFFF7B2FFF9E700BF60AB04082A
:104EE800F410050865AB040870B5144605460E466F
:104EF800127883B132B1032A04D0104ABDE8704059
:104F0800FFF79CBF032661682670286AFFF789FDB2
:104F180000B1067070BD62B9012321462370006A92
:104F2800FFF786FD2378012BF4D1054A3146284640
:104F3800E4E7062AEED0034AE0E700BF6CAB0408BA
:104F480079AB040886AB04082DE9F341437804469D
:104F58000D46012B1AD10B79102B0CBF4FF001080D
:104F68004FF0000808D0036A1B782BB9114A02B029
:104F7800BDE8F041FFF762BF01AA6D2105F1080005
:104F88000026FFF7F5FA0746B74202D102B0BDE89E
:104F9800F081019B0022206A53F826100136090986
:104FA800FFF71EFD4346024629462046FFF79CFFB1
:104FB800EAE700BF8DAB040842780B46012A02D10C
:104FC800006A02F00BBE816A026A2031406A02F070
:104FD80014BE42780B46012A02D1006AFFF700BDD1
:104FE800816A026A1031406A02F007BE70B5054650
:104FF8000C4600292DD0CA0706D5836A49105B6B79
:10500800686ABDE8704018478B0716D004F00F0493
:105018000909022C0AD0062C0CD0052919D0836A5C
:10502800C9B2406A1B6BBDE870401847BDE87040C4
:10503800FFF7CFBF836A9B6BE2E7836A0968DB6887
:10504800406A98472279034B2146284653F8223074
:10505800D7E770BDB80605082DE9F74F05460C4699
:1050680016461F462046FFF747F840B16EB9AB6AAF
:1050780039469B6E686A03B0BDE8F04F1847204672
:10508800FFF73DF820B1002EF1D103B0BDE8F08F55
:10509800002C48D0A30746D163684FEA132BDBB234
:1050A8001E2B18D1DEB1043404EB8B0B5C45ECD01D
:1050B8003B46324654F8041F2846FFF7CDFFF5E774
:1050C80043465AF8041F2846019209F10109FFF7DF
:1050D800C3FF019A11E01F2B1FD1002EE3D0D5F892
:1050E8000C8004F1040A4FF0000986F0010208F16F
:1050F8000103EB600BF1FF330093009B4B45DFDCB2
:105108000BF101013B463246284654F82110FFF7BF
:10511800A3FFAB6A41469B6AACE7202B03D1A46886
:1051280086F001069EE721462846FFF75FFFAB6A37
:105138003A463146DB6E686A03B0BDE8F04F18475F
:10514800026A38B5127804460B46072A06D0022AA6
:1051580004D0154ABDE83840FFF770BE9D6885B990
:10516800A36A0F21606A1B6B9847A36A0021606AD3
:10517800D3F8CC30984720460121BDE83840FFF7E6
:105188007DBCAB070BD12B79AF2B08D12046A96882
:10519800FFF72CFF2046BDE83840FFF7F7BC29464B
:1051A8002046FFF723FFE0E7A3AB040870B5437878
:1051B80004461546CE68012B06D1036A0A462946DD
:1051C8001B8BFFF71CFD70610023716920461A468E
:1051D800FFF77CFCF1682046FFF708FF062D05D194
:1051E800A36A0021606AD3F888309847A36A01212E
:1051F800606AD3F8BC500023AC461A46BDE870403C
:10520800604738B505460C46C968FFF7EFFEA16848
:105218002846BDE83840FFF7E9BE0B79342B70B556
:1052280004460D4610D18968FFF7E0FEED68AD68C9
:1052380085B9A36A0F21606A1B6B9847A36A042289
:105248000221D3F8A0301AE0836A0F21406A1B6B51
:105258009847ECE7AB071FD12B799A2B13D1A36A98
:105268000F21606A1B6B9847A9680029E6D0204681
:10527800FFF7BCFEA36A04220321D3F8A030606ABA
:10528800BDE8704018479B2B06D1A9682046FFF758
:10529800ADFEEB689968E8E729462046FFF7A6FEC9
:1052A800CCE710B504468968FFF7A0FE0021A36A81
:1052B800606ADB6CBDE81040184700002DE9F74331
:1052C8008D68044616465DB9002A75D0836A0222A5
:1052D8002946D3F8A030606A03B0BDE8F043184708
:1052E80015F0030740F08A802B79372B13D132B1A0
:1052F800836A02220121406AD3F8A03098472046E9
:105308002946FFF773FEA36A606AD3F8A43003B096
:10531800BDE8F04318479F2B70D1EB681A79A12A92
:105328005AD1A22101AA03F10800FFF721F9A968BF
:10533800804621B38B0722D10B79372B1FD136B189
:10534800A36A411C0222606AD3F8A0309847A96872
:105358002046FFF74BFEA36A4FF00109606AD3F8B5
:10536800A4309847474510D1B9F1000F24D1A36A5A
:105378000322791C606AD3F8A03098471CE02046C5
:105388004FF00009FFF732FEECE7019B53F82710B6
:10539800A9B18E0713D10E79A6F1370046424641CE
:1053A8002046FFF723FEB9F1000F11D04EB9184A75
:1053B80029462046FFF742FD03B0BDE8F0830026EA
:1053C800EEE7A36A606AD3F8A43098470137C9E7C3
:1053D800002EFBD00F4AEBE7AB685BB19A0709D107
:1053E8001B79372B06D10422294603B0BDE8F043C8
:1053F800FFF7DCBE052229462046F6E72946204667
:10540800FFF7F4FDA36A03220121D3F8A03062E775
:10541800AEAB0408BFAB04080122FFF74FBF70B55D
:105428000D46C9680446FFF7E1FDA968A36AC1F300
:105438000711606AD3F89830332916BF3F39022123
:10544800C9B2BDE870401847F8B54F680C46002649
:1054580089683F0A0C340546FFF7C8FD0236083450
:10546800B74200DCF8BD54F8041C2846FFF7BEFD1F
:1054780054F8081CAB6A0909686AD3F89C302439C7
:10548800C9B29847EAE72DE9F0414E680C46012772
:105498000546A6F10D08360A54F8081F5FFA88F881
:1054A800FFF7A4FDB74201DBBDE8F08154F8041F03
:1054B8002846FFF79BFDAB6A4146686AD3F89C30E3
:1054C80001379847EEE72DE9F0414E680D468968A7
:1054D8000446360A0127FFF789FD032E89BFD4F851
:1054E8000C804FF0000808F10103E3607B1C9E422A
:1054F80022DC032E55D9E568606A6B1C2946E360F7
:10550800A36A9B6E9847A36A4146606A9B6A98475C
:10551800A36A0121606A9B689847A36A606A1B6E48
:105528009847A36A606ADB6D9847A36A2946606A50
:105538009B6ABDE8F0411847023729692046FFF702
:1055480055FDB74207DAA36A606A5B6D9847A36A9C
:10555800606A5B6E9847EB68A26A03F00F01606AA5
:10556800D2F89C200A2911D1C3F30713252B16BFA3
:10557800343B0621D9B29047B74205DAA36A4246BE
:105588000021606A1B6F98470835AFE719798529AC
:1055980001D13221EFE79B680BB90721EBE73321F3
:1055A800E9E7BDE8F08110B504468968FFF71EFDFC
:1055B8000321A36A606AD3F89830BDE81040184701
:1055C8002DE9F0470D46D0F80C800446002755F821
:1055D800046F5FFA86F9360AA9F11E03D3F10009B0
:1055E80049EB030908F10103C360B74206DBA36A6C
:1055F8004146606A9B6ABDE8F0471847013755F88D
:10560800041F2046FFF7F2FCB742F0DAA36A4246CD
:105618004946606A1B6F9847E7E7000001F00F03EF
:10562800022B70B5044612D00B79492B09D0483BA0
:10563800082B18D8DFE803F00817071717171705FE
:1056480007000123A37070BD8E680D6975B9A37832
:10565800002BF8D1638A002BF5D020461D4ABDE8FF
:105668007040FFF7EBBBD1E90265EFE7A3783BB3E6
:10567800238A01339BB2012B23820ED1618AD4E99C
:105688000903D1B1D3F8A03000229847A36A0222B7
:105698000021606AD3F8A030984729462046FFF7D2
:1056A800A5FCA36A606A31099B6B9847A36A606A84
:1056B800D3F8A430BDE8704018471B6C9847E5E75D
:1056C800638A2946204601336382BDE87040FFF7AC
:1056D8008DBC00BFCAAB04082DE9F041C56804467B
:1056E800D1F80C800E46AB1C0022D8F808106F1CAD
:1056F800C3602B46FFF7B0FCB1682046FFF776FC85
:10570800A36A3946606A9B6E9847A36A2946606A0D
:105718009B6A9847A36A606A4FF0FF319B68984775
:10572800D8F80C102046FFF761FCA36A3946606A76
:105738009B6ABDE8F04118472DE9F047C668044662
:10574800D0F814A00D46B31C06F10108B0F81A9061
:10575800C360038B8682A0F8168043838868FEF7AF
:10576800CBFCF8B9E768A8687B1CE360FEF7C7FCC8
:1057780020B9A36A4146606A9B6E9847A36A394676
:10578800606A9B6A9847E9682046FFF72FFCA36A7E
:105798004146606A9B6A98473B460122A9682046B1
:1057A800FFF75AFC29692046C4F814A0A4F81A90F7
:1057B800FFF71CFCA36A3146606A9B6ABDE8F047A4
:1057C80018472DE9F347C66804460D46731CC360A5
:1057D8008868FEF791FC0246E8B9E7682046A968A0
:1057E8007B1CE3603B46FFF737FC2046E968FFF780
:1057F800FDFBA868FEF783FCD8B92B690BB96B6968
:1058080023B1A36A3146606A9B6E9847A36A3946FA
:10581800606A9B6A984701AA712105F11000002768
:10582800FEF7A6FE81464F450BD169692046FFF772
:10583800DDFBA36A3146606A9B6A984702B0BDE8FF
:10584800F087019B53F82780D8F80800FEF754FC2E
:10585800024600BBD4F80CA02046D8F808100AF17C
:105868000103E3605346FFF7F7FBD8F80C10204616
:10587800FFF7BCFBD8F80800FEF741FCD4E9092380
:105888000028D6D19B6E314610469847A36A5146E8
:10589800606A9B6A98470137C5E70000184B2DE9F5
:1058A800F041D3F8287204460D463FBBC668012272
:1058B8008968731CC3603346FFF7CEFBA36A1F21B8
:1058C80001225B69606A9847E96851B12046FFF791
:1058D8008DFBA36A3A460121D3F8BC503B46606A67
:1058E800A847A36A0121606AD3F8C8309847A36A19
:1058F8003146606A9B6ABDE8F0411847BDE8F0810F
:105908003C00002470B58D6804463DB9836A294679
:10591800D3F8C830606ABDE870401847AB070ED1AD
:105928002B795E2B0BD1A968FFF760FBE96820464D
:10593800FFF75CFBA36A0221D3F8C830EAE72946DF
:105948002046FFF753FBA36A0121D3F8C830E1E7EB
:1059580010B504468968FFF749FBA36A606ADB6DE6
:10596800BDE8104018470000026A2DE9F04112789E
:105978000446072A04D01B4ABDE8F041FFF75EBA87
:105988008D685DB9836A0F21406A1B6B9847A36ACB
:10599800606AD3F8C430BDE8F041184715F0030237
:1059A8001DD12B791B2B1AD1C668EF68731CB968F7
:1059B800C3603346FFF750FBA9682046FFF716FB84
:1059C800A36A606AD3F8C4309847A36A3146606A0C
:1059D8009B6A9847F9682046FFF708FBD7E72946EE
:1059E800F9E700BFE8AB04082DE9F0410C4605468D
:1059F80054F8046F360A04EB8607BC4208D1AB6A38
:105A08003146686A0022D3F8A030BDE8F041184753
:105A180054F8041F2846FFF7E9FAEEE789680346B9
:105A280010B441B9826A406AD2F8A0400A462346B7
:105A38005DF8044B18474A68120A022A0BD1CA6853
:105A48004AB1940707D11279AC2A04D106225DF82D
:105A5800044BFFF7ABBB18465DF8044BFFF7C4BF18
:105A68002DE9F0410E4605460F46002456F8043F3E
:105A78004FEA1328444501DBBDE8F08156F8041FBE
:105A88002846FFF7B3FA6B683BB10234284657F84B
:105A98002410BDE8F041FFF745B90134EAE710B535
:105AA8000446FFF7DDFF2221A36A606AD3F89C3021
:105AB800BDE81040184770B58D68044645B9836A3B
:105AC80001222946D3F8A030606ABDE87040184723
